:100000000C948E020C94B6020C94B6020C94B602B8
:100010000C94B6020C94B6020C94B6020C94B60280
:100020000C94B6020C94B6020C94B6020C945D2C9F
:100030000C94B6020C94B6020C94B6020C94B60260
:100040000C943B2E0C94B6020C94B6020C94B6029F
:100050000C94B6020C94B6020C94B6020C94B60240
:100060000C94B6020C94B60240243E61F7DB7C008F
:1000700000003F61F7DB7C0000003361B61B6000CD
:1000800000003F61B61C60CAAB803E61B61C7CAA12
:100090003A803F61B61C0CCAAA80337DF7DB7CAA8C
:1000A000AA803F7DF7DB7CCEAB803E7DF7DB7C001A
:1000B0000000000000000000000000000800002018
:1000C00000000000080380200000000008028020DB
:1000D00000000000080380200000000008028020CB
:1000E00000000000080380200000000008028020BB
:1000F00000000000080380200000000008028020AB
:10010000000000000803802000000000080000201C
:10011000000000000FE07020000000000FE07020E1
:10012000000000000FE07020000000000F1C702095
:10013000000000000F1C7020000000000F1C702049
:10014000000000000F1C7E20000000000F1C7E201D
:10015000000000000F1C7E20000000000FFC7FE06C
:10016000000000000FFC7FE0000000000FFC7FE0BB
:100170000000000008FFFFE00000000008FFFFE0B3
:100180000000000008FFFFE000004C494E4553000E
:10019000163A616363657074002147414D45204FF5
:1001A0005645522100153A61636365707420163A12
:1001B00063616E63656C002D43484F4F5345204784
:1001C000414D45204C4556454C2D0003053F213FF0
:1001D0000A100A1208120E1C0E0C1E0C141A141609
:1001E0001F161E131E1E1B1E1E1F1E3F213F3A2FD1
:1001F0003A173D173F213F181F02040A041F0E043F
:10020000040E1F0A1F0A0E0E1F04110E2E252E2F7C
:100210002A2E262929021F02081F08150E04040E83
:10022000150E15151B151B040604040C0400000014
:100230000017000300031F0A1F16371A1904130AB8
:10024000153A000300000E11110E000A040A040EF4
:10025000040030000404040010001804031F111FE0
:10026000121F101D151711151F07041F17151D1F2D
:10027000151D01011F1F151F17151F000A00003251
:1002800000040A110A0A0A110A040115020E1117C4
:100290001E051E1F150A0E110A1F110E1F15111F14
:1002A00005010E111D1F041F111F1108100F1F043F
:1002B0001B1F10101F061F1E040F0E110E1F090614
:1002C0000E112E1F051A121509011F011F101F0FF5
:1002D000180F1F0C1F1B041B031C03191513001FF1
:1002E00011030418111F0002010220202000010246
:1002F0000C121E1F120C0C12120C121F0C1A1404DA
:100300001E05242A1E1F021C141D1020201D1F085C
:1003100014111F101E041E1E021C0C120C3E0A0497
:100320000C123E1E040214160A020F120E101E0EAC
:10033000100E1E081E120C1226281E322A26041E1B
:1003400021001F00211E040102013F213F0A4E6FC0
:100350002053442063617264206F720A6E6F204CD8
:100360004F414445522E4845580A0A153A45786986
:1003700074001D20466C617368696E670A20206CEA
:100380006F616465722E2E2E0A0A444F4E27542048
:100390005455524E204F464621004E4F2042415464
:1003A000544552590A0A504C454153450A54555236
:1003B0004E204F46460017736176650016626163F2
:1003C0006B001574797065000A0A0A153A6F6B6143
:1003D0007920163A6564697400596F7520656E74EA
:1003E000657265640A00540A03E181867F3E186DD8
:1003F000830F0F0E0183866033186DC3198F1803A6
:10040000C38E6033186DE330CF1803C39E6036305F
:10041000CDE360CF3006C79E7E3E30CDB360CF3097
:100420000CC6F6603330D9B660CF33CFCCF66061FE
:10043000B0DB1E60CF30D86CE6C061B0DB1E618FD0
:1004400019986CC6C063B19B0E330F0FB078C6FF0E
:100450007E1F1B061E0F1753440016137800161339
:100460001400151020001520100000000500893030
:10047000080238024978681400004500680100004D
:10048000050068013801000005003801680100001E
:10049000F6E8DBCFC3B8AEA49B928A827B746E6809
:1004A000625C57524E4945413E3A3734312E2C2931
:1004B00027252321B804BC040101F7030101FF0330
:1004C00000000000240027002A0000000000250092
:1004D00028002B000000000023002600290004044F
:1004E00004040404040402020202020203030303DC
:1004F00003030102040810204080010204081020B8
:10050000010204081020000000070002010000039F
:1005100004060000000000000000B70711241FBE01
:10052000CFEFD8E0DEBFCDBF11E0A0E0B1E0E4E264
:10053000FDE602C005900D92AA3BB107D9F715E080
:10054000AAEBB1E001C01D92AE39B107E1F715E0A9
:10055000CCE1D5E004C02297FE010E945536CA3195
:10056000D107C9F70E94B3300C9490360C94000068
:10057000A0E0B0E0EEEBF2E00C946136EC01A88074
:10058000B980CA80DB80A114B104C104D10441F454
:1005900084E2A82E89EDB82E8BE5C82E87E0D82EF0
:1005A000C601B5012DE133EF41E050E00E9438363D
:1005B00027EA31E440E050E00E94D0357B018C0115
:1005C000C601B5012DE133EF41E050E00E9438361D
:1005D000CA01B9012CEE34EF4FEF5FEF0E94D03526
:1005E0006E0D7F1D801F911F97FF04C061507040EA
:1005F00080409048688379838A839B839B01AC0108
:100600005F77B901CA01CDB7DEB7EAE00C947D3659
:100610000E94B80208958BE491E00E94B802089508
:1006200060934B0170934C0180934D0190934E0168
:100630000895FB01DC0102C001900D924150504031
:10064000D8F70895FB01DC0101900D920020E1F73D
:100650000895FB019F01E8944230C4F04532B4F4A0
:100660004A3029F497FB1EF4909581959F4F642F93
:1006700077270E94EF35805D8A330CF0895D819386
:10068000CB010097A1F716F45DE251931082C901E6
:100690000C946105AEE0B0E0E0E5F3E00C94673661
:1006A0000D891E8986E08C831A8309838FEF9FE76B
:1006B0009E838D839E01275E3F4FCE0101966F89F9
:1006C000788DA9010E946E032F813885020F131FB8
:1006D000F80110822E96E4E00C948336ABE0B0E093
:1006E000E4E7F3E00C9459363C012B015A01FC017C
:1006F00017821682838181FD03C06FEF7FEFC6C131
:100700009AE0892E1E010894211C311CF3012381DB
:10071000F20123FD859123FF81912F01882309F4A4
:10072000B2C1853239F423FD859123FF81912F01D8
:10073000853229F490E0B3010E947105E7CF982F2C
:10074000FF24EE249924FFE1FF15D0F09B3269F0DD
:100750009C3228F4903259F0933291F40EC09D32BD
:1007600049F0903369F441E024C052E0F52A84E076
:10077000F82A28C098E0F92A25C0E0E1FE2A22C024
:10078000F7FC29C0892F80538A3070F4F6FE05C02B
:10079000989C902C1124980E15C0E89CE02C1124F4
:1007A000E80EF0E2FF2A0EC09E3229F4F6FC6BC17F
:1007B00040E4F42A07C09C3619F450E8F52A02C038
:1007C000983649F4F20123FD959123FF91912F0171
:1007D000992309F0B8CF892F8554833018F08052BF
:1007E000833038F444E050E0A40EB51E5FE3598333
:1007F0000FC0933631F0933779F0933509F056C036
:1008000020C0F5018081898342E050E0A40EB51E2E
:10081000610101E010E012C0F501C080D180F6FC5A
:1008200003C06FEF7FEF02C0692D70E042E050E03F
:10083000A40EB51EC6010E9456058C015FE7F52285
:1008400014C0F501C080D180F6FC03C06FEF7FEFCC
:1008500002C0692D70E042E050E0A40EB51EC60152
:100860000E944B058C0150E8F52AF3FE07C01AC020
:1008700080E290E0B3010E947105EA948E2D90E031
:1008800008171907A8F30EC0F601F7FC8591F7FECB
:1008900081916F0190E0B3010E947105E110EA942B
:1008A000015010400115110579F7EAC0943611F096
:1008B000993669F5F7FE08C0F50120813181428142
:1008C000538184E090E00AC0F501808191819C0110
:1008D000442737FD4095542F82E090E0A80EB91EC2
:1008E0009FE6F92257FF09C0509540953095219514
:1008F0003F4F4F4F5F4FE0E8FE2ACA01B901A10107
:100900002AE030E00E949D05D82ED21840C09537CD
:1009100029F41F2D1F7E2AE030E01DC01F2D197FF6
:100920009F3661F0903720F4983509F0ACC00FC0C5
:10093000903739F0983709F0A6C004C028E030E0BD
:100940000AC0106114FD146020E130E004C014FD01
:10095000166020E132E017FF08C0F5016081718167
:100960008281938144E050E008C0F501808191814B
:10097000BC0180E090E042E050E0A40EB51EA10171
:100980000E949D05D82ED2188FE7F82EF122F6FE90
:100990000BC05EEFF522D91438F4F4FE07C0F2FC68
:1009A00005C08FEEF82202C01D2D01C0192DF4FEE6
:1009B0000DC0FE01ED0DF11D8081803319F499EE1B
:1009C000F92208C01F5FF2FE05C003C08F2D867894
:1009D00009F01F5F0F2DF3FC14C0F0FE0FC01E15B1
:1009E00010F09D2C0BC09D2C9E0C911A1E2D06C044
:1009F00080E290E0B3010E9471051F5F1E15C0F3F5
:100A000004C01E1510F4E11A01C0EE2404FF0FC04B
:100A100080E390E0B3010E94710502FF1DC001FD5B
:100A200003C088E790E00EC088E590E00BC0802FFF
:100A3000867891F001FF02C08BE201C080E2F7FCF2
:100A40008DE290E0B3010E94710506C080E390E062
:100A5000B3010E9471059A94D914C0F3DA94F1019C
:100A6000ED0DF11D808190E0B3010E947105DD2044
:100A7000A9F706C080E290E0B3010E947105EA94F4
:100A8000EE20C1F743CEF30166817781CB012B962F
:100A9000E2E10C947536FC01059061507040011044
:100AA000D8F7809590958E0F9F1F0895FC01615097
:100AB000704001900110D8F7809590958E0F9F1F80
:100AC0000895DC01FC01672F71917723E1F73297DC
:100AD00004C07C916D9370836291AE17BF07C8F319
:100AE00008950F931F93CF93DF938C01EB018B81BC
:100AF00081FF1BC082FF0DC02E813F818C819D81B3
:100B00002817390764F4E881F9810193F983E883B0
:100B100006C0E885F985802F0995892B31F48E81EF
:100B20009F8101969F838E8302C00FEF1FEFC80144
:100B3000DF91CF911F910F910895FA01AA272830D4
:100B400051F1203181F1E8946F936E7F6E5F7F4F9A
:100B50008F4F9F4FAF4FB1E03ED0B4E03CD0670F16
:100B6000781F891F9A1FA11D680F791F8A1F911D69
:100B7000A11D6A0F711D811D911DA11D20D009F4B9
:100B800068943F912AE0269F11243019305D3193FB
:100B9000DEF6CF010895462F4770405D4193B3E0E4
:100BA0000FD0C9F7F6CF462F4F70405D4A3318F08B
:100BB000495D31FD4052419302D0A9F7EACFB4E03C
:100BC000A6959795879577956795BA95C9F70097F4
:100BD0006105710508959B01AC010A2E0694579595
:100BE000479537952795BA95C9F7620F731F841FEC
:100BF000951FA01D08959C01AB011816190624F538
:100C00008091730390917403820F931F0A970CF0E5
:100C1000E8C08091770390917803820F931F0A9721
:100C20000CF0DFC080917B0390917C03820F931FB7
:100C30000A970CF0D6C080917F0390918003820FB9
:100C4000931F0A971CF1CDC0009701F180917303A7
:100C500090917403820F931F97FDC3C08091770317
:100C600090917803820F931F97FDBBC080917B0307
:100C700090917C03820F931F97FDB3C080917F03F7
:100C800090918003820F931F97FDABC057FF20C048
:100C90008091710390917203840F951F97FDA1C0FD
:100CA0008091750390917603840F951F97FD99C0ED
:100CB0008091790390917A03840F951F97FD91C0DD
:100CC00080917D0390917E03840F951F97FD89C0CD
:100CD000809171039091720380319105D4F4840F57
:100CE000951FFC0173E0EE0FFF1F7A95E1F7880F67
:100CF000991FE80FF91FE20FF31F80917303909182
:100D00007403E80FF91FE154FD4F8081882309F037
:100D100066C0809175039091760380319105D4F47B
:100D2000840F951FFC01B3E0EE0FFF1FBA95E1F7AA
:100D3000880F991FE80FF91FE20FF31F80917703C7
:100D400090917803E80FF91FE154FD4F80818823CB
:100D500009F045C08091790390917A038031910523
:100D6000CCF4840F951FFC0173E0EE0FFF1F7A9502
:100D7000E1F7880F991FE80FF91FE20FF31F809129
:100D80007B0390917C03E80FF91FE154FD4F8081B4
:100D9000882329F560917D0370917E036031710590
:100DA00014F080E00895CA01860F971FFC0153E0FC
:100DB000EE0FFF1F5A95E1F7880F991FE80FF91FF3
:100DC000E20FF31F80917F0390918003E80FF91FDA
:100DD000E154FD4FE081E111E1E08E2F089581E0C3
:100DE000089581E0089540915F0350916003609100
:100DF000B1027091B202640F751F7093B2026093DA
:100E0000B102E091AF02F091B002423051051CF402
:100E100021E030E00CC080914F019091500101968B
:100E2000849F9001859F300D949F300D11242E0FCB
:100E30003F1F3093B0022093AF0240914F01509179
:100E40005001CA01880F991F9A01B3E0220F331F86
:100E5000BA95E1F7820F931F68177907FCF04930C4
:100E6000510534F44F5F5F4F5093500140934F0151
:100E7000E0914F01F0915001EE0FFF1FE15BFE4F3B
:100E800080819181AA2797FDA095BA2F8093B30204
:100E90009093B402A093B502B093B60208951F9345
:100EA00040E050E060E070E017C0112319F4808149
:100EB0008C9381E02F5F3F4F319611962A30310598
:100EC000A1F7882311F06F5F7F4F4F5F5F4F403175
:100ED000510511F49B0129C0FA01EF59FC4F108113
:100EE000FA01EE0FFF1FCA01A3E0880F991FAA9510
:100EF000E1F7E80FF91FE154FD4FDB01AA0FBB1F1B
:100F0000CB0123E0880F991F2A95E1F7A80FB91F9D
:100F1000A154BD4F20E030E080E0C7CF1192019690
:100F20008A309105D9F72F5F3F4F2031310584F486
:100F3000F901EE0FFF1FC90143E0880F991F4A9581
:100F4000E1F7E80FF91FE154FD4F80E090E0E6CFB4
:100F5000E1E6F3E0119283E0E137F807D9F70E9468
:100F6000F3061092600310925F031F910895EAEB5D
:100F7000F1E080EFDF011D928A95E9F7109275028A
:100F80001092740286EB91E0909373028093720248
:100F9000E0914F01F0915001F093AE02E093AD0269
:100FA000EE0FFF1FEF5AFE4F80819181AA2797FD18
:100FB000A095BA2F8093B3029093B402A093B50288
:100FC000B093B6020E94832E6093BB027093BC0262
:100FD0008093BD029093BE0208958F929F92AF922C
:100FE000BF92CF92DF92EF92FF920F931F937C01FB
:100FF000162F6FED862E61E0962E52E7A52E51E05A
:10100000B52E6C0144E0CC0CDD1C4A95E1F7CA0C0E
:10101000DB1CC40160E0F601448520E0012F0E9442
:10102000E627C40161E0F601408120E00E94E62746
:10103000F60120852195C40162E042850E94E627E1
:1010400024E0EE0CFF1C2A95E1F7F60124812A53D7
:10105000C40163E046810E94E627AE0CBF1CC401B8
:10106000F5016281F6014685212F0E9448281F91D3
:101070000F91FF90EF90DF90CF90BF90AF909F9037
:101080008F90089583E090E060E070E00E94ED07AB
:10109000089581E090E060E070E00E94ED0708951F
:1010A000EF92FF920F931F93CF93DF937C0181E028
:1010B000E816F10429F083E0E816F10409F072C0A3
:1010C000A0917303B09174036091710370917203E6
:1010D000AA30B1050CF0DEC0B7FDDCC0EB012196F3
:1010E000D7FDD8C0FE01EE0FFF1FCE0143E0880FF1
:1010F000991F4A95E1F7E80FF91FEA0FFB1FE1542A
:10110000FD4F8081882309F0C5C0AD01415050409A
:101110008FEF4F3F580709F4BDC077FDBBC0FB01FF
:10112000EE0FFF1FCB0123E0880F991F2A95E1F7EF
:10113000E80FF91FE40FF51FE154FD4F808188236C
:1011400009F0A8C09B01215030408FEF2F3F380796
:1011500009F4A0C0F901EE0FFF1FC90113E0880FC9
:10116000991F1A95E1F7E80FF91FE40FF51FE154F5
:10117000FD4F8081882309F08DC0D0937603C09302
:101180007503B0937803A093770370937A03609309
:10119000790350937C0340937B0330937E03209329
:1011A0007D036EC082E0E816F10429F084E0E816C1
:1011B000F10409F06FC0A0917303B09174038D0125
:1011C0000F5F1F4FC0917103D09172030A30110558
:1011D0000CF060C017FD5EC0D7FD5CC0FE01EE0FD5
:1011E000FF1FCE0123E0880F991F2A95E1F7E80F32
:1011F000F91FE00FF11FE154FD4F8081882309F0B2
:1012000049C0AA30B1050CF045C0B7FD43C0BE01CE
:101210006F5F7F4F9B01220F331FCB01E3E0880FED
:10122000991FEA95E1F7280F391FF901EA0FFB1F13
:10123000E154FD4F8081882369F5AD014150504054
:101240008FEF4F3F580731F1F901E40FF51FE154DB
:10125000FD4F80818823F1F4D0937603C09375030A
:10126000109378030093770370937A036093790364
:10127000B0937C03A0937B0370937E0360937D0304
:101280005093800340937F030E944908F0926901C4
:10129000E0926801DF91CF911F910F91FF90EF9045
:1012A0000895EF92FF920F931F93CF93DF937C01EA
:1012B00081E0E816F10429F083E0E816F10409F072
:1012C00071C0A0917303B091740360917103709128
:1012D0007203AA30B1050CF0E2C0B7FDE0C0EB012B
:1012E0002196D7FDDCC0FE01EE0FFF1FCE0143E0CB
:1012F000880F991F4A95E1F7E80FF91FEA0FFB1FC6
:10130000E154FD4F8081882309F0C9C0AD014F5FD2
:101310005F4F4A30510509F4C2C077FDC0C0FB01E0
:10132000EE0FFF1FCB0123E0880F991F2A95E1F7ED
:10133000E80FF91FE40FF51FE154FD4F808188236A
:1013400009F0ADC09B01215030408FEF2F3F38078F
:1013500009F4A5C0F901EE0FFF1FC90113E0880FC2
:10136000991F1A95E1F7E80FF91FE40FF51FE154F3
:10137000FD4F8081882309F092C0D0937603C093FB
:101380007503B0937803A093770370937A03609307
:10139000790350937C0340937B0330937E03209327
:1013A0007D0373C082E0E816F10429F084E0E816BA
:1013B000F10409F074C0A0917303B09174038D011E
:1013C0000F5F1F4FC0917103D09172030A30110556
:1013D0000CF065C017FD63C0D7FD61C0FE01EE0FC4
:1013E000FF1FCE0123E0880F991F2A95E1F7E80F30
:1013F000F91FE00FF11FE154FD4F8081882309F0B0
:101400004EC0AA30B1050CF04AC0B7FD48C0BE01BD
:10141000615070408FEF6F3F780709F440C09B0127
:10142000220F331FCB01E3E0880F991FEA95E1F704
:10143000280F391FF901EA0FFB1FE154FD4F80818E
:10144000882369F5AD01415050408FEF4F3F580759
:1014500031F1F901E40FF51FE154FD4F808188233C
:10146000F1F4D0937603C09375031093780300933F
:10147000770370937A0360937903B0937C03A0930E
:101480007B0370937E0360937D03509380034093AE
:101490007F030E944908F0926901E0926801DF91A0
:1014A000CF911F910F91FF90EF9008950F931F938D
:1014B000CF93DF938C018130910509F06CC040918E
:1014C00073035091740320917103309172034A3079
:1014D00051050CF0C8C157FDC6C1E9012197D7FDE0
:1014E000C2C1FE01EE0FFF1FCE01A3E0880F991FBE
:1014F000AA95E1F7E80FF91FE40FF51FE154FD4F3E
:101500008081882309F0AFC1D9011196B7FDABC125
:101510009D01220F331FCD0163E0880F991F6A954B
:10152000E1F7280F391FF901E40FF51FE154FD4FD2
:101530008081882309F097C1BA016F5F7F4F6A30BD
:10154000710509F490C1F901E60FF71FE154FD4F51
:101550008081882309F087C1D0937603C0937503F7
:101560005093780340937703B0937A03A093790361
:1015700050937C0340937B03B0937E03A0937D0341
:101580007093800360937F030E9449081093690160
:101590000093680168C18230910509F06FC04091E5
:1015A000730350917403DA01119760917103709184
:1015B0007203AA30B1050CF056C1B7FD54C177FDD6
:1015C00052C19B01220F331FCB01E3E0880F991F0B
:1015D000EA95E1F7280F391FF901EA0FFB1FE154E3
:1015E000FD4F8081882309F03EC14F5F5F4F4A3035
:1015F00051050CF038C157FD36C1F901E40FF51F54
:10160000E154FD4F8081882309F02DC19B012150B9
:1016100030408FEF2F3F380709F425C1F901EE0F55
:10162000FF1FC90113E0880F991F1A95E1F7E80F12
:10163000F91FE40FF51FE154FD4F8081882309F065
:1016400012C17093760360937503B0937803A093EF
:10165000770370937A036093790350937C034093EC
:101660007B0330937E0320937D035093800340934C
:101670007F030E94490882E090E0F1C08330910529
:1016800009F074C040917303509174032091710369
:10169000309172034A3051050CF0E5C057FDE3C0AC
:1016A000D9011196B7FDDFC0FD01EE0FFF1FCD017F
:1016B00013E0880F991F1A95E1F7E80FF91FE40F5F
:1016C000F51FE154FD4F8081882309F0CCC02150E3
:1016D000304037FDC8C0F901EE0FFF1FC90163E0BC
:1016E000880F991F6A95E1F7E80FF91FE40FF51FBE
:1016F000E154FD4F8081882309F0B5C0BA016150E3
:101700007040EFEF6F3F7E0709F4ADC0F901EE0FB7
:10171000FF1FC90113E0880F991F1A95E1F7E80F21
:10172000F91FE60FF71FE154FD4F8081882309F070
:101730009AC0B0937603A0937503509378034093B7
:10174000770330937A032093790350937C0340937B
:101750007B0330937E0320937D037093800360931B
:101760007F030E94490883E090E079C084309105AE
:1017700009F079C04091730350917403BA016F5F0F
:101780007F4F20917103309172036A3071050CF024
:101790006AC077FD68C037FD66C0F901EE0FFF1F14
:1017A000C901A3E0880F991FAA95E1F7E80FF91F77
:1017B000E60FF71FE154FD4F8081882309F053C0E5
:1017C000415050404A3051050CF04DC057FD4BC0C0
:1017D000F901EE0FFF1FC90113E0880F991F1A9539
:1017E000E1F7E80FF91FE40FF51FE154FD4F808189
:1017F0008823C9F5C9010197EFEF8F3F9E0799F143
:10180000FC01B3E0EE0FFF1FBA95E1F7880F991FB7
:10181000E80FF91FE60FF71FE154FD4F8081882381
:1018200011F53093760320937503709378036093DA
:10183000770330937A032093790350937C0340938A
:101840007B032F5F3F4F30937E0320937D035093A4
:10185000800340937F030E94490884E090E09093C6
:10186000690180936801DF91CF911F910F910895D5
:101870000F931F93CF93DF938C018130910509F073
:101880006DC04091730350917403209171033091A6
:1018900072034A3051050CF0C3C157FDC1C1E901C3
:1018A0002197D7FDBDC1FE01EE0FFF1FCE01A3E0C2
:1018B000880F991FAA95E1F7E80FF91FE40FF51FAC
:1018C000E154FD4F8081882309F0AAC1D901119606
:1018D000B7FDA6C19D01220F331FCD0163E0880F24
:1018E000991F6A95E1F7280F391FF901E40FF51FD9
:1018F000E154FD4F8081882309F092C1BA01615003
:1019000070408FEF6F3F780709F48AC1F901E60F45
:10191000F71FE154FD4F8081882309F081C1D093E6
:101920007603C09375035093780340937703B09385
:101930007A03A093790350937C0340937B03B09385
:101940007E03A0937D037093800360937F030E94C6
:101950004908109369010093680162C182309105C2
:1019600009F06AC04091730350917403DA01119732
:101970006091710370917203AA30B1050CF050C1EF
:10198000B7FD4EC177FD4CC19B01220F331FCB0128
:10199000E3E0880F991FEA95E1F7280F391FF90155
:1019A000EA0FFB1FE154FD4F8081882309F038C105
:1019B0004F5F5F4F4A3051050CF032C157FD30C1C7
:1019C000F901E40FF51FE154FD4F8081882309F0F0
:1019D00027C19B012F5F3F4FF901EE0FFF1FC90188
:1019E00013E0880F991F1A95E1F7E80FF91FE40F2C
:1019F000F51FE154FD4F8081882309F011C17093D8
:101A0000760360937503B0937803A0937703709384
:101A10007A036093790350937C0340937B03309364
:101A20007E0320937D035093800340937F030E94A5
:101A3000490882E090E0F0C08330910509F073C05E
:101A4000409173035091740320917103309172039C
:101A50004A3051050CF0E4C057FDE2C0D90111969F
:101A6000B7FDDEC0FD01EE0FFF1FCD0113E0880FB3
:101A7000991F1A95E1F7E80FF91FE40FF51FE154DC
:101A8000FD4F8081882309F0CBC02150304037FDC5
:101A9000C7C0F901EE0FFF1FC90163E0880F991F4E
:101AA0006A95E1F7E80FF91FE40FF51FE154FD4FC8
:101AB0008081882309F0B4C0BA016F5F7F4F6A301C
:101AC000710509F4ADC0F901EE0FFF1FC90113E064
:101AD000880F991F1A95E1F7E80FF91FE60FF71F16
:101AE000E154FD4F8081882309F09AC0B0937603BA
:101AF000A0937503509378034093770330937A0350
:101B00002093790350937C0340937B0330937E03AF
:101B100020937D037093800360937F030E944908A4
:101B200083E090E079C08430910509F079C040915C
:101B3000730350917403DA0111962091710330916F
:101B40007203AA30B1050CF06BC0B7FD69C037FD58
:101B500067C0F901EE0FFF1FC90163E0880F991FED
:101B60006A95E1F7E80FF91FEA0FFB1FE154FD4FFB
:101B70008081882309F054C0BA01615070406A30F6
:101B800071050CF04DC077FD4BC0F901EE0FFF1F42
:101B9000C90143E0880F991F4A95E1F7E80FF91F43
:101BA000E60FF71FE154FD4F80818823C9F5A90195
:101BB000415050408FEF4F3F580791F1FA01EE0F1F
:101BC000FF1FCA0113E0880F991F1A95E1F7E80F6C
:101BD000F91FE60FF71FE154FD4F8081882301F5BF
:101BE0003093760320937503B0937803A093770323
:101BF00030937A032093790370937C0360937B0383
:101C000050937E0340937D037093800360937F0322
:101C10000E94490884E090E09093690180936801F4
:101C2000DF91CF911F910F910895CF93DF93813072
:101C3000910509F079C04091730350917403EA0152
:101C400021976091710370917203CA30D1050CF035
:101C5000DFC1D7FDDDC177FDDBC1FB01EE0FFF1F4B
:101C6000CB01A3E0880F991FAA95E1F7E80FF91FB0
:101C7000EC0FFD1FE154FD4F8081882309F0C8C19E
:101C80004A3051050CF0C4C157FDC2C1DB011196A9
:101C9000FD01EE0FFF1FCD0123E0880F991F2A954C
:101CA000E1F7E80FF91FE40FF51FE154FD4F8081C4
:101CB000882309F0ADC19B01215030408FEF2F3FA9
:101CC000380709F4A5C1F901EE0FFF1FC901880FFC
:101CD000991F880F991F880F991FE80FF91FE40FAC
:101CE000F51FE154FD4F8081882309F091C1709365
:101CF000760360937503D0937803C0937703B09312
:101D00007A03A093790350937C0340937B03309331
:101D10007E0320937D035093800340937F030E94B2
:101D2000490881E090E070C18230910509F072C0ED
:101D3000A0917303B0917403ED0121976091710339
:101D400070917203CA30D1050CF062C1D7FD60C139
:101D500077FD5EC19B01220F331FCB0143E0880F4B
:101D6000991F4A95E1F7280F391FF901EC0FFD1F64
:101D7000E154FD4F8081882309F04AC1AD014F5FD6
:101D80005F4F4A3051050CF043C157FD41C1F90185
:101D9000E40FF51FE154FD4F8081882309F038C11D
:101DA000AA30B1050CF034C1B7FD32C19B012F5FE1
:101DB0003F4FF901EE0FFF1FC901880F991F880FD0
:101DC000991F880F991FE80FF91FEA0FFB1FE154B5
:101DD000FD4F8081882309F01BC1709376036093C7
:101DE0007503D0937803C093770370937A0360935D
:101DF000790350937C0340937B0330937E032093BD
:101E00007D03B0938003A0937F030E94490882E082
:101E100090E0FAC08330910509F077C020917303F8
:101E200030917403A0917103B09172032A3031058F
:101E30000CF0EEC037FDECC0ED012196D7FDE8C0F7
:101E4000FE01EE0FFF1FCE0163E0880F991F6A9518
:101E5000E1F7E80FF91FE20FF31FE154FD4F808116
:101E6000882309F0D5C0BD016150704077FDD0C016
:101E7000FB01EE0FFF1FCB0143E0880F991F4A952E
:101E8000E1F7E80FF91FE20FF31FE154FD4F8081E6
:101E9000882309F0BDC0A9014F5F5F4F4A3051054B
:101EA00009F4B6C0B7FDB4C0FD01EE0FFF1FCD01B0
:101EB000880F991F880F991F880F991FE80FF91F26
:101EC000E40FF51FE154FD4F8081882309F0A0C085
:101ED000D0937603C09375033093780320937703F0
:101EE00070937A036093790330937C0320937B0390
:101EF000B0937E03A0937D035093800340937F03B0
:101F00000E94490883E090E07FC0049709F080C0F8
:101F1000A0917303B0917403ED0121974091710377
:101F200050917203CA30D1050CF072C0D7FD70C059
:101F300057FD6EC0FA01EE0FFF1FCA0163E0880F64
:101F4000991F6A95E1F7E80FF91FEC0FFD1FE154A7
:101F5000FD4F8081882309F05BC0BD016F5F7F4F1B
:101F60006A3071050CF054C077FD52C0FA01EE0FD3
:101F7000FF1FCA0123E0880F991F2A95E1F7E80F98
:101F8000F91FE60FF71FE154FD4F8081882309F008
:101F90003FC0AA30B105E4F5B7FD3AC09A0121501F
:101FA00030408FEF2F3F380799F1F901EE0FFF1FF7
:101FB000C901880F991F880F991F880F991FE80F73
:101FC000F91FEA0FFB1FE154FD4F8081882301F5C3
:101FD0005093760340937503D0937803C0937703AF
:101FE00050937A034093790370937C0360937B034F
:101FF00030937E0320937D03B0938003A0937F03EF
:102000000E94490884E090E0909369018093680100
:10201000DF91CF9108950F931F93CF93DF938C019E
:102020008230910521F08430910509F062C0209141
:10203000730330917403E9012196A0917103B0916B
:102040007203CA30D1050CF0C6C0D7FDC4C0B7FDBD
:10205000C2C0AD01440F551FCD01E3E0880F991FA9
:10206000EA95E1F7480F591FFA01EC0FFD1FE15403
:10207000FD4F8081882309F0AEC0B90161507040E6
:102080006A3071050CF0A7C077FDA5C0FA01E60F14
:10209000F71FE154FD4F8081882309F09CC0225036
:1020A00030402A3031050CF096C037FD94C0FA015B
:1020B000E20FF31FE154FD4F8081882309F08BC0AC
:1020C000B0937603A0937503D0937803C0937703FE
:1020D000B0937A03A093790370937C0360937B039E
:1020E000B0937E03A0937D033093800320937F03FE
:1020F0006CC040917303509174032091710330912F
:1021000072034A3051050CF066C057FD64C0D90116
:102110001296B7FD60C0FD01EE0FFF1FCD0163E019
:10212000880F991F6A95E1F7E80FF91FE40FF51F73
:10213000E154FD4F8081882309F04DC0B9016F5FE4
:102140007F4F77FD48C0FB01EE0FFF1FCB01880FCB
:10215000991F880F991F880F991FE80FF91FE40F27
:10216000F51FE154FD4F80818823A9F521503040AF
:1021700037FD31C0F901EE0FFF1FC901880F991F0C
:10218000880F991F880F991FE80FF91FE40FF51F9B
:10219000E154FD4F80818823F1F43093760320933E
:1021A0007503509378034093770370937A03609399
:1021B000790350937C0340937B03B0937E03A093F9
:1021C0007D035093800340937F030E94490810933E
:1021D000690100936801DF91CF911F910F910895DC
:1021E0008091680190916901843091051CF081E033
:1021F00090E001C001962091660130916701243082
:102200003105D1F0253031053CF42130310571F034
:1022100023303105E1F40DC02630310599F0263028
:1022200031056CF02730310591F40FC00E940B107E
:1022300008950E94150E08950E94380C08950E947A
:10224000560A08950E94510908950E945008089561
:1022500080E090E060E070E00E94ED0708956091FA
:102260005F037091600340E050E015C080818823D7
:1022700039F02F5F3F4F31962A303105B9F725C02D
:1022800080E090E0FA01EF59FC4F80834F5F5F4F91
:102290004031510581F0FA01EE0FFF1FCA01A3E0A2
:1022A000880F991FAA95E1F7E80FF91FE154FD4F38
:1022B00020E030E0DBCF60935F037093600316167D
:1022C000170644F40E94281108956F5F7F4F81E044
:1022D00090E0D8CF089582E090E060E070E00E9446
:1022E000ED070895EF92FF920F9302E7E02E02E0D0
:1022F000F02EC7016AE141E320E20FEC0E94B11D1C
:10230000C70168E141E324E20E94B11D0F91FF90F3
:10231000EF9008950F932091710330917203203153
:102320003105DCF48091730390917403BC01660F56
:10233000771F680F791F655E7F4FC9018095909563
:10234000AC01440F551F480F591F405D5F4F82E796
:1023500092E023E003E00E94B11D209175033091CB
:10236000760320313105DCF4809177039091780376
:10237000BC01660F771F680F791F655E7F4FC9012B
:1023800080959095AC01440F551F480F591F405D33
:102390005F4F82E792E023E003E00E94B11D2091AD
:1023A000790330917A0320313105DCF480917B038D
:1023B00090917C03BC01660F771F680F791F655EE3
:1023C0007F4FC90180959095AC01440F551F480F70
:1023D000591F405D5F4F82E792E023E003E00E94D7
:1023E000B11D20917D0330917E0320313105DCF455
:1023F00080917F0390918003BC01660F771F680F67
:10240000791F655E7F4FC90180959095AC01440F9F
:10241000551F480F591F405D5F4F82E792E023E050
:1024200003E00E94B11D0F910895AF92BF92CF9229
:10243000DF92EF92FF920F931F93CF93DF93CC2401
:10244000DD2451E0A52EB12CA822B922C601809529
:1024500090957C01EE0CFF1CE80EF91E80E390E0E5
:10246000E80EF91EF601EF59FC4F80818823F1F444
:10247000E601CC0FDD1FC60123E0880F991F2A95C6
:10248000E1F7C80FD91FC154DD4F1BE188818823B4
:1024900041F082E792E0612F4E2D23E003E00E949D
:1024A0007B1D21961D5F193389F718C01BE1A1140C
:1024B000B10449F482E792E0612F4E2D23E003E05E
:1024C0000E94B11D08C082E792E0612F4E2D23E0EB
:1024D00003E00E947B1D1D5F193349F70894C11C5E
:1024E000D11C90E1C916D10409F0B0CFDF91CF9192
:1024F0001F910F91FF90EF90DF90CF90BF90AF9022
:102500000895CF92DF92EF92FF920F931F93CF9394
:10251000DF93CC24DD24C601809590957C01EE0CE0
:10252000FF1CE80EF91E80E390E0E80EF91EE601BC
:10253000CC0FDD1FC60163E0880F991F6A95E1F794
:10254000C80FD91FC154DD4F1BE18881882341F09A
:1025500082E792E0612F4E2D23E003E00E947B1D75
:1025600021961D5F193389F70894C11CD11C90E195
:10257000C916D10481F6DF91CF911F910F91FF9081
:10258000EF90DF90CF9008952F923F924F925F92FD
:102590006F927F928F929F92AF92BF92CF92DF9273
:1025A000EF92FF920F931F93DF93CF93CDB7DEB7D8
:1025B000CC54D0400FB6F894DEBF0FBECDBF2C0177
:1025C0007A012DB73EB72B963FAF2EAF2B973DB775
:1025D0002C963FAF2C978EB72D968FAF2D97ADB71A
:1025E000BEB7A41BB50B0FB6F894BEBF0FBEADBFF0
:1025F0000DB71EB70F5F1F4F4330510579F400D060
:1026000000D000D0EDB7FEB73196ADB7BEB7129689
:102610001C930E93119786E091E012C0453051054E
:1026200009F049C000D000D000D0EDB7FEB7319618
:10263000ADB7BEB712961C930E9311978BE091E045
:1026400093838283758364830E944A03EDB7FEB748
:1026500036960FB6F894FEBF0FBEEDBFD8018C9131
:10266000682F772767FD70956053704011968C91A5
:102670001197C82EDD24C7FCD094E0EDFFEFCE0EFD
:10268000DF1E12968C911297282E332427FC30944B
:102690002E0E3F1E1396FC9113972996FFAF299794
:1026A00014962C9128962FAF289733E0E316F10467
:1026B00009F043C007C0C20160E070E04AE00E9438
:1026C0006833B0C04E010894811C911CC4014AE0DB
:1026D0000E9468338FE0A82EB12CAC0EBD1EC50140
:1026E000B4010E94BB3308E0E02EF12CEC0EFD1E7D
:1026F000C701B6014AE00E946833C501B7010E94D4
:10270000E4326C018E010A5E1F4FC801B1014AE03C
:102710000E946833C601B8010E94E432BC01C201C4
:102720000E94B033C8010E94C633C7010E94C6335D
:10273000C5010E94CC33C40173C085E0E816F104E2
:1027400009F070C0CE014D964AE00E9468331BE24A
:10275000612E712C6C0E7D1EC301BE01635E7F4F26
:102760000E94BB33B4E28B2E912C8C0E9D1EC401B3
:10277000B6014AE00E946833C301B4010E94E4320A
:102780008C01A2E3AA2EB12CAC0EBD1EC501B10175
:102790004AE00E946833C801B5010E94E4328C010E
:1027A000F9E3EF2EF12CEC0EFD1E29969FAD299733
:1027B000692F772767FD709560537040C7014AE025
:1027C0000E946833C801B7010E94E4326C018E0197
:1027D000005C1F4F2896AFAD28976A2F772767FDBB
:1027E000709560537040C8014AE00E946833C6018A
:1027F000B8010E94E432BC01C2010E94B033C8019A
:102800000E94C633C7010E94C633C5010E94C63369
:10281000C4010E94C633C3010E94CC33CE014D9641
:102820000E94C6332C968FAD2C972D969FAD2D9779
:102830009C010FB6F8943EBF0FBE2DBFC2012B9670
:10284000EEADFFAD2B970FB6F894FEBF0FBEEDBFF8
:10285000C45BDF4F0FB6F894DEBF0FBECDBFCF9184
:10286000DF911F910F91FF90EF90DF90CF90BF907D
:10287000AF909F908F907F906F905F904F903F9020
:102880002F900895FF920F931F93DF93CF93CDB7AF
:10289000DEB72E970FB6F894DEBF0FBECDBFFF2474
:1028A000F394F0927B0285E080937C028E010F5FAF
:1028B0001F4FC80160E171E00E941B3382E792E084
:1028C000B8010E949D31C8010E94C633F0927B027C
:1028D0008DE080937C028E01085F1F4F6091AF02F4
:1028E0007091B002C80145E050E00E94C41282E736
:1028F00092E0B8010E949D31C8010E94C633F09257
:102900007B0285E180937C0282E792E066E171E0E0
:102910000E94673180916401909165018430910536
:1029200009F44FC0853091055CF48230910509F4BB
:102930009EC0833091055CF5019709F098C00CC0EA
:102940008630910509F46BC0863091050CF453C0B4
:10295000079709F08CC070C082E792E06BE042E21A
:1029600023E003E00E94B11D82E792E06BE04FE1BB
:1029700023E00E94B11D82E792E06BE045E223E094
:102980000E94B11D82E792E06BE048E28AC082E7D4
:1029900092E06BE042E223E003E00E94B11D82E797
:1029A00092E068E042E223E00E94B11D82E792E0FB
:1029B0006BE045E223E00E94B11D82E792E06BE00C
:1029C00054C082E792E06BE042E223E003E00E9421
:1029D000B11D82E792E06BE045E223E00E94B11D69
:1029E00082E792E06BE04FE123E00E94B11D82E7B5
:1029F00092E068E03AC082E792E06BE042E223E0D6
:102A000003E00E94B11D82E792E06BE045E223E023
:102A10000E94B11D82E792E06BE04FE120C082E7A7
:102A200092E06BE042E223E003E00E94B11D82E706
:102A300092E06BE04FE127C082E792E06BE042E278
:102A400023E003E00E94B11D82E792E06BE045E2E3
:102A500023E00E94B11D82E792E06EE042E223E0B3
:102A60000E94B11D82E792E06EE04FE11AC082E75A
:102A700092E06BE042E223E003E00E94B11D82E7B6
:102A800092E06BE045E223E00E94B11D82E792E014
:102A90006EE042E223E00E94B11D82E792E06EE028
:102AA00045E223E00E94B11D2E960FB6F894DEBFDA
:102AB0000FBECDBFCF91DF911F910F91FF90089571
:102AC0009F92AF92BF92CF92DF92EF92FF920F93BD
:102AD0001F93DF93CF93CDB7DEB76C970FB6F89403
:102AE000DEBF0FBECDBF0E9442143EE3932E9092F4
:102AF0007B0285E080937C025E010894A11CB11CDE
:102B0000C5016BE171E00E941B3328E0E22EF12C3D
:102B1000EC0EFD1EC701B5010E94BB33C70160E288
:102B200071E00E94C8326C018E01015F1F4F6091FD
:102B30004F0170915001C8014AE00E946833C601FC
:102B4000B8010E94E432BC0192E7C92E92E0D92E6E
:102B5000C6010E946A31C8010E94C633C7010E94A3
:102B6000CC33C5010E94C63390927B028FE08093E4
:102B70007C02C6016AE871E00E94EC3090927B0210
:102B800086E180937C028E010A5E1F4F6091B10244
:102B90007091B202C80143E050E00E94C412C60125
:102BA000B8010E949D31C8010E94C6336C960FB6D1
:102BB000F894DEBF0FBECDBFCF91DF911F910F9173
:102BC000FF90EF90DF90CF90BF90AF909F900895CF
:102BD00081E090E0909369018093680160916401C5
:102BE000709165016430710509F46FC0653071053D
:102BF00064F462307105C9F1633071050CF048C0AE
:102C00006130710509F0F5C00DC06630710509F439
:102C1000B0C0663071050CF481C06730710509F0F1
:102C2000E8C0C4C082E190E0909372038093710386
:102C300025E030E0309374032093730383E190E048
:102C400090937603809375033093780320937703F2
:102C500081E190E090937A038093790330937C0331
:102C600020937B0380E190E0E4C080E190E09093CA
:102C700072038093710344E050E0509374034093D7
:102C80007303909376038093750325E030E0C3C00F
:102C900080E190E0909372038093710325E030E02F
:102CA000309374032093730390937603809375039A
:102CB00084E090E0909378038093770381E190E043
:102CC00090937A03809379038DC081E190E0909393
:102CD00072038093710325E030E0309374032093F6
:102CE000730380E190E090937603809375033093B3
:102CF00078032093770382E190E090937A038093A6
:102D0000790330937C0320937B0390937E0380931D
:102D10007D037093800360937F0393C081E190E013
:102D2000909372038093710325E030E03093740335
:102D30002093730380E190E0909376038093750372
:102D4000309378032093770382E190E090937A03A5
:102D50008093790330937C0320937B0390937E03CD
:102D600080937D0386E090E09093800380937F03BF
:102D700068C040E150E0509372034093710324E037
:102D800030E0309374032093730381E190E09093DB
:102D900076038093750330937803209377035093E1
:102DA0007A034093790325E030E01CC040E150E015
:102DB000509372034093710325E030E03093740325
:102DC0002093730381E190E09093760380937503E1
:102DD000309378032093770350937A0340937903D9
:102DE00024E030E030937C0320937B038FE090E07D
:102DF00020C080E190E0909372038093710345E0DE
:102E000050E0509374034093730390937603809340
:102E1000750326E030E0309378032093770381E157
:102E200090E090937A038093790350937C034093CE
:102E30007B0390937E0380937D03309380032093E4
:102E40007F03709367016093660161E070E080E04A
:102E500090E028E030E040E050E00E941C327093A7
:102E6000650160936401089581E08093630120E02F
:102E700030E00AC0119201968A309105D9F72F5F90
:102E80003F4F2031310581F0F901EE0FFF1FC901DD
:102E900053E0880F991F5A95E1F7E80FF91FE154A5
:102EA000FD4F80E090E0E6CFE1E6F3E0119283E0B1
:102EB000E137F807D9F71092600310925F0361E0E1
:102EC00070E080E090E028E030E040E050E00E94D8
:102ED0001C32709365016093640181E090E09093EF
:102EE0006901809368011092B2021092B1021092AF
:102EF000B0021092AF02E091AD02F091AE02F093F9
:102F00005001E0934F01EE0FFF1FE15BFE4F808108
:102F10009181AA2797FDA095BA2F8093B302909331
:102F2000B402A093B502B093B6021092AB0281E056
:102F30008093AA020895CF92DF92EF92FF921F939F
:102F4000CF93DF9384EC91E062E043E00E94631C46
:102F5000882371F181E090E060E070E00E94FB0561
:102F6000882331F5809173039091740301969093B7
:102F70007403809373038091770390917803019693
:102F8000909378038093770380917B0390917C03E7
:102F9000019690937C0380937B0380917F039091B3
:102FA000800301969093800380937F0311E001C01A
:102FB00010E084EC91E060E043E00E94631C882311
:102FC00069F18FEF9FEF60E070E00E94FB058823BE
:102FD00029F5809173039091740301979093740382
:102FE0008093730380917703909178030197909376
:102FF00078038093770380917B0390917C03019702
:1030000090937C0380937B0380917F039091800356
:1030100001979093800380937F0311E084EC91E00B
:1030200063E041E00E94631C882381F1C091710339
:10303000D09172031C161D064CF580E090E06FEFF6
:103040007FEF0E94FB05882309F52197D093720337
:10305000C0937103809175039091760301979093CB
:103060007603809375038091790390917A03019799
:1030700090937A038093790380917D0390917E03EE
:10308000019790937E0380937D0311E084EC91E09F
:1030900064E00E94591C882311F00E94F0100E94E5
:1030A000832E6B017C01112309F09FC08091B70230
:1030B0009091B802A091B902B091BA02A70196010D
:1030C000281B390B4A0B5B0B8091B3029091B40221
:1030D000A091B502B091B602281739074A075B07DD
:1030E00008F483C080916301882309F08DC080E0DB
:1030F00090E06FEF7FEF0E94FB05882309F484C006
:1031000080917103909172030F9724F081E0809376
:10311000AB0263C00E9442088091710390917203D8
:10312000FC0163E0EE0FFF1F6A95E1F7880F991F1E
:10313000E80FF91F8091730390917403E80FF91F52
:10314000E154FD4F21E02083809175039091760337
:10315000FC0143E0EE0FFF1F4A95E1F7880F991F2E
:10316000E80FF91F8091770390917803E80FF91F1A
:10317000E154FD4F20838091790390917A03FC0103
:1031800013E0EE0FFF1F1A95E1F7880F991FE80F64
:10319000F91F80917B0390917C03E80FF91FE154A4
:1031A000FD4F208380917D0390917E03FC01A3E07D
:1031B000EE0FFF1FAA95E1F7880F991FE80FF91F7F
:1031C00080917F0390918003E80FF91FE154FD4F38
:1031D0002083209363010E942F11C092B702D092E6
:1031E000B802E092B902F092BA0280915F03909126
:1031F0006003892B71F580916301882351F10E944E
:10320000E8151092630125C08091710390917203BB
:10321000019790937203809371038091750390914D
:1032200076030197909376038093750380917903D9
:1032300090917A03019790937A0380937903809118
:103240007D0390917E03019790937E0380937D038D
:10325000C4CFDF91CF911F91FF90EF90DF90CF907F
:103260000895EF92FF920F931F9380915F039091C7
:1032700060031816190644F50E94832E7B018C0109
:103280008091BB029091BC02A091BD02B091BE02A0
:10329000E81AF90A0A0B1B0B88EEE81683E0F80619
:1032A00080E0080780E0180738F00E944F070E946E
:1032B00060150E94721110C00E9460150E94721168
:1032C000C7010E94151214C00E949B170E9460152E
:1032D0000E9472110E948A110E9481120E94832E04
:1032E0006093BB027093BC028093BD029093BE02B8
:1032F0008091AB02882311F00E946B111F910F91F6
:10330000FF90EF900895EF92FF920F931F93DF933A
:10331000CF93CDB7DEB7AA970FB6F894DEBF0FBE36
:10332000CDBF86E180937B0281E080937C0282E7BF
:1033300092E069E971E00E94EC3010927B028AE031
:1033400080937C02F8E0EF2EF12CEC0EFD1EC701FD
:1033500061E271E00E94353360914F01709150013C
:103360008E010F5F1F4FC8014AE00E946833C701FA
:10337000B8010E94E4326AE271E00E94C832BC01E6
:1033800082E792E00E946A31C8010E94C633C701F9
:103390000E94CC3310927B0284E180937C02E6E1B0
:1033A000EE2EF12CEC0EFD1EC7016CE271E00E94C6
:1033B00035338E01015F1F4F6091B1027091B202EF
:1033C000C8014AE00E946833C701B8010E94E43294
:1033D000BC0182E792E00E946A31C8010E94C633B4
:1033E000C7010E94CC3310927B028EE180937C0255
:1033F00074E2E72EF12CEC0EFD1EC70164E371E0D0
:103400000E9435338E01035E1F4F6091AF027091B1
:10341000B002C8014AE00E946833C701B8010E94A7
:10342000E432BC0182E792E00E946A31C8010E9446
:10343000C633C7010E94CC3310927B0288E280938E
:103440007C0282E792E060E971E00E94EC3084EC5B
:1034500091E065E00E94591C882341F08FED91E0D6
:103460000E94812C1092AA021092AB02AA960FB66B
:10347000F894DEBF0FBECDBFCF91DF911F910F91AA
:10348000FF90EF900895CF92EF92FF920F931F93CA
:10349000DF93CF93CDB7DEB72E970FB6F894DEBF8C
:1034A0000FBECDBF85E080937B0281E080937C02DC
:1034B00082E792E067EB71E00E94EC3082E792E0F5
:1034C0006EE14AE029E10FE033E2E32E1FE0C12E76
:1034D0000E94981F82E792E06EE14CE129E107E14A
:1034E000B7E1CB2E0E94981F10927B0281E180935E
:1034F0007C02A8E0EA2EF12CEC0EFD1EC7016CE365
:1035000071E00E9435336091AD027091AE028E0180
:103510000F5F1F4FC8014AE00E946833C701B8011E
:103520000E94E432BC0182E792E00E946A31C80145
:103530000E94C633C7010E94CC3310927B0288E2FE
:1035400080937C0282E792E065EA71E00E94EC30B1
:1035500084EC91E061E00E94591C882361F0809125
:10356000AD029091AE02893091052CF401969093B2
:10357000AE028093AD0284EC91E063E00E94591C9E
:10358000882361F08091AD029091AE028230910566
:103590002CF001979093AE028093AD0284EC91E001
:1035A00064E00E94591C882381F08FED91E00E9415
:1035B000812C8091AD029091AE0290935001809346
:1035C0004F011092AA021092AC0284EC91E065E0E7
:1035D0000E94591C882371F08FED91E00E94812C8C
:1035E00080914F01909150019093AE028093AD0273
:1035F0001092AC0284EC91E066E00E94591C882392
:1036000041F08FED91E00E94812C8AEB91E00E94C5
:1036100001242E960FB6F894DEBF0FBECDBFCF911A
:10362000DF911F910F91FF90EF90CF9008958091BF
:10363000AA02882311F40E9434178AEB91E00E94B9
:103640005025882321F19091AB029923A9F4809110
:10365000AC02882389F484EC91E066E00E94591C56
:10366000882339F08FED91E00E94872C81E08093D0
:10367000AC020E94311908958091AC02882319F0A0
:103680000E94431A0895992311F00E948319089506
:103690000F931F930AEB11E0C8010E946D27C80128
:1036A0000E941B25C80168E670E00E9467271092FF
:1036B000D2011F910F910895882319F48CB580626F
:1036C00002C08CB58F7D8CBD08959CB5937F982BDF
:1036D0009CBD08952CB5382F33702C7F322B3CBD08
:1036E0002DB590E0959587959595879581702E7F5E
:1036F000822B8DBD08958AE061E00E940C308AE043
:1037000061E00E94CD2F8CB580618CBD8CB580644A
:103710008CBD8DE061E00E94CD2F8BE061E00E94C6
:10372000CD2F0895FC0181E08083089585E070E04D
:103730000E946D2F08956F927F928F929F92AF9209
:10374000BF92CF92DF92EF92FF920F931F93CF938E
:10375000DF93EC0189819A818C0124E0000F111F15
:103760002A95E1F7081B190B85E10E944B2FBC013C
:10377000600F711F84E0769567958A95E1F77A83EB
:1037800069838881882381F12E813F8162177307C5
:1037900010F4B90106C0888599858617970708F443
:1037A000BC0100D000D080E090E040E050E0E88430
:1037B000F98400E010E0AD80BB24CC24DD246C80D3
:1037C000772488249924EDB7FEB7618272828382C0
:1037D00094820E94B1316B830F900F900F900F90E5
:1037E00085E070E00E946D2FDF91CF911F910F91C6
:1037F000FF90EF90DF90CF90BF90AF909F908F9011
:103800007F906F900895FC018CE39FE09383828307
:1038100084E0818381E084870895CF93DF93EC0176
:103820008C8590E08F719070892B69F584E10E94FE
:103830004B2FAA2797FDA095BA2FBC01CD010E945E
:10384000E13426EE3FE34EEC50E40E946D350E94D9
:10385000B3349B01AC017B836A836115710589F0E8
:1038600084E08983B901FE0120E084819581681795
:10387000790710F429830AC02F5F32962430A9F704
:1038800002C08FEF89838C858F5F8C87DF91CF910A
:103890000895FC0188E0808389E0818387E082834A
:1038A00086E0838384E0848382E0858381E186836C
:1038B000089520E0FC01E60FF11D8781813009F4B5
:1038C00021E0822F0895E62FF0E0423040F420E01E
:1038D000E80FF91F878181508E3F88F40FC0E80FF1
:1038E000F91F87818F3F11F420E009C020E090E0AC
:1038F000642F70E00E94EF35019709F421E0822FD8
:1039000008950F931F93CF93DF93EC0110E00FEF17
:10391000888162E00E94CD2F88810E9460302F81D3
:10392000892B19F42F5F2F8307C0222349F02F3FE3
:1039300011F41F8201C00F83888160E00E94CD2FA7
:103940001F5F2196173021F7DF91CF911F910F91C3
:103950000895FC01678F60A30895FC01678F40A361
:103960000895FC016435A8F547FD33C040338CF55C
:10397000878D942F959595959595772767FD7095EB
:103980004770882399F0E4E59E02F0011124E60FC8
:10399000F71FEF57FC4F81E090E002C0880F991F9E
:1039A0004A95E2F72081282B20830895E4E59E02C2
:1039B000F0011124E60FF71FEF57FC4F81E090E074
:1039C00002C0880F991F4A95E2F78095208128232D
:1039D00020830895AF92BF92CF92DF92EF92FF9231
:1039E0000F931F93CF93DF93EC01162FF42EE22E4B
:1039F000AA24402F552747FD50958F2D992787FDE5
:103A00009095481B590B57FF03C0509541955F4F48
:103A10002E2D332727FD3095812F992787FD9095EF
:103A2000281B390B37FF03C0309521953F4F2417D2
:103A3000350744F4AA24A3948F2DF12E182F802F3C
:103A40000E2DE82EE11634F48E2DE12E182F802F46
:103A50000F2DF82EDE2CD11A202F332727FD30957D
:103A60008F2D992787FD9095281B390B37FF03C0B1
:103A7000309521953F4FB22EF0161CF0CC24CA94FD
:103A800002C0CC24C3948D2DD7FC8F5F082F0595E1
:103A900011C0AA2021F0CE016F2D412F03C0CE010D
:103AA000612F4F2D0E94B11C0B1907FF02C0FC0CA7
:103AB0000D0D1F5FE1166CF7DF91CF911F910F91F4
:103AC000FF90EF90DF90CF90BF90AF9008950F934D
:103AD000042F322F262F2150230F0E94EA1C0F9112
:103AE00008950F93362F042F0150020F232F0E94A9
:103AF000EA1C0F9108959F92AF92BF92CF92DF92EE
:103B0000EF92FF920F931F93CF93DF936C01B62E2A
:103B1000942EA02EC0E0D0E0E62EFF24E7FCF09427
:103B2000022F112707FD10950E0D1F1D06C0C6019F
:103B3000492D2A2D0E94711D21966B2D6C0FCE01EF
:103B40008E0D9F1D8017910794F3DF91CF911F91E8
:103B50000F91FF90EF90DF90CF90BF90AF909F902C
:103B60000895CF92DF92EF92FF920F931F937C0103
:103B7000162FD42EC22E0E94671D4D2D4150400F8E
:103B8000C701612F2C2D0E94671DC701612F4D2D8C
:103B9000202F0E94711D11501C0DC701612F4D2D4A
:103BA000202F0E94711D1F910F91FF90EF90DF90C9
:103BB000CF9008952F923F925F926F927F928F9253
:103BC0009F92AF92BF92CF92DF92EF92FF920F93AC
:103BD0001F93DF93CF9300D000D000D0CDB7DEB7D6
:103BE0009E838D83C62ED42EEE24E394E21A8EEFAC
:103BF000289F502C1124842E8A94962E9A94A42EB9
:103C0000A394B62EB394F22E662423E0722E10E015
:103C1000C801847090709A838983F801E270F07013
:103C2000FC83EB8398E0292E312C20223122017075
:103C3000107054C0E7FC04C0FA94F2E05F0EE50C8B
:103C4000639489819A81892B71F04F2D4D0D8D815F
:103C50009E816B2D0E94B11C6F2D6C0D8D819E81FC
:103C60004A2D0E94B11CEB81FC81EF2B71F04D2D90
:103C70004F198D819E816B2D0E94B11C6F2D6C0D93
:103C80008D819E81482D0E94B11C2114310471F058
:103C90006C2D6F198D819E814A2D0E94B11C4F2D74
:103CA0004D0D8D819E81692D0E94B11C011511055C
:103CB00071F06C2D6F198D819E81482D0E94B11C71
:103CC0004D2D4F198D819E81692D0E94B11CE70CED
:103CD000F2E07F0E8A949A94A394B3946F140CF438
:103CE000A9CF26960FB6F894DEBF0FBECDBFCF91F9
:103CF000DF911F910F91FF90EF90DF90CF90BF90D9
:103D0000AF909F908F907F906F905F903F902F909B
:103D100008954F925F926F927F928F929F92AF928F
:103D2000BF92CF92DF92EF92FF920F931F93CF93A8
:103D3000DF93EC01A62E742E9E2DFF24F394F21A2D
:103D40008EEF289F802C1124B42EBA9453E0C52EF8
:103D5000CE0CE22EDD2443E0942E10E031E0432E21
:103D6000512C40225122692E63940270107034C08D
:103D7000F7FC04C0EA9482E0880EF80CD394411456
:103D8000510489F06D2D6A0D472D4E192E2D220FED
:103D9000260DCE010E94711D6E2D6A0DCE014B2D98
:103DA0002C2D0E94711D0115110589F06A2D6D19C8
:103DB000472D4E192E2D220F260DCE010E94711D6A
:103DC0006A2D6E19CE014B2D2C2D0E94711DF90C00
:103DD00082E0980EBA94C80EDE1454F2DF91CF91AF
:103DE0001F910F91FF90EF90DF90CF90BF90AF9019
:103DF0009F908F907F906F905F904F9008957F92EB
:103E00008F929F92AF92BF92CF92DF92EF92FF92EA
:103E10000F931F936C01962EA42EF22E7E2C760EFD
:103E20001EEFE19E102D1124812E820E672D282D6C
:103E30000E94671DB02EBA0CBA94C601672D4B2D97
:103E4000282D0E94671DAE0C100FC601692D4A2D4A
:103E5000212F0E94711DF90CFA94C6016F2D4A2D75
:103E6000212F0E94711DC601672D4A2D2E2D01E0C4
:103E70000E94DA1DFE18C6016F2D4A2D2E2D02E07C
:103E80000E94DA1DBE18C6016F2D4B2D2E2D04E0A9
:103E90000E94DA1DC601672D4B2D2E2D08E00E94D1
:103EA000DA1D1F910F91FF90EF90DF90CF90BF90A0
:103EB000AF909F908F907F9008958F929F92AF9236
:103EC000BF92CF92DF92EF92FF920F931F936C01FC
:103ED000162FA42E922EF02EBE2C8E2C860E2EEF98
:103EE000E29EE02C11242E2D290D682D0E947B1DB1
:103EF000AB0CFA94FE0C1150190D1B19C601612F61
:103F00004A2D2B2D01E0EF2C0E94891EC601682D41
:103F10004A2D2B2D02E00E94891E1F910F91FF90C8
:103F2000EF90DF90CF90BF90AF909F908F900895CB
:103F30002F923F924F925F927F928F929F92AF9279
:103F4000BF92CF92DF92EF92FF920F931F93DF9376
:103F5000CF93CDB7DEB72C970FB6F894DEBF0FBE68
:103F6000CDBF1C01D62E742F722E04172CF4762E82
:103F7000D22E802F042F782FC01634F48E2DE72CEC
:103F8000782E8C2DC02E082F071734F4872D7D2C0A
:103F9000D82E802F072F782F7C15D1F47D141CF498
:103FA000672D2D2D07C0D7141CF46D2D272D02C0B1
:103FB0006D2D2D2DE61614F46E2D03C02E150CF468
:103FC0002E2D2F5F261BC101472F0E94671DA5C004
:103FD000472D552747FD50958D2D992787FD9095A5
:103FE0009A01281B390B3A872987A02EBB24A7FCEE
:103FF000B094872E992487FC9094D501A819B9090B
:10400000B887AF832E2D332727FD30952901481A15
:10401000590A8C2D992787FD9095FC01E819F9091B
:10402000FE83ED83D901A41BB50BBC83AB83FC01DC
:10403000EA19FB09FA83E9830C1511F4EC2C02C090
:10404000E02EEA94F72E00E010E01C861B8626C0C6
:10405000C8016F8178850E940336362F3D0D8B8510
:104060009C856D817E810E940336262F2D0D23179E
:104070001CF4822F232F382F49855A85040F151FD2
:104080008B859C85840D951D9C878B872F5F231BBB
:10409000C101632F4F2D0E94671DF394EF14C4F6E6
:1040A0008F2D992787FD90959C012A193B09AB819B
:1040B000BC812A9F80012B9F100D3A9F100D112467
:1040C00088199909849D5001859DB00C949DB00C70
:1040D000112421C0C80169817A810E940336362FDC
:1040E000370DC5016D817E810E940336262F2D0D6F
:1040F00023171CF4822F232F382FEB81FC810E0F06
:104100001F1FA40CB51C2F5F231BC101632F4F2D54
:104110000E94671DF394CF14ECF62C960FB6F8941A
:10412000DEBF0FBECDBFCF91DF911F910F91FF90EA
:10413000EF90DF90CF90BF90AF909F908F907F9047
:104140005F904F903F902F9008953F924F925F92D3
:104150006F927F928F929F92AF92BF92CF92DF9297
:10416000EF92FF920F931F93CF93DF934C01362E64
:10417000442EF901A490319654906F010894C11C0B
:10418000D11C8A2D992787FD9095079668E070E0ED
:104190000E940336E62EFF24E7FCF09400E0C0E026
:1041A000D0E060E8662E712C26C0E12FE595E595FC
:1041B000E595FF27E7FDF095EC0FFD1FEC0DFD1DCC
:1041C000E4912E2F30E0812F8770A30102C0559516
:1041D00047958A95E2F724233523232B31F0612F6D
:1041E000630DC4014B2D0E94B11C1F5F1A15ECF228
:1041F0000F5FCE0DDF1D051524F410E0B02EB40CBA
:10420000F5CFDF91CF911F910F91FF90EF90DF904D
:10421000CF90BF90AF909F908F907F906F905F9066
:104220004F903F9008953F924F925F926F927F928E
:104230008F929F92AF92BF92CF92DF92EF92FF92B6
:104240000F931F93CF93DF93EC01862EA42E422F62
:10425000102F3F8C23E526170CF4ABC03FE23A1534
:104260000CF4A7C0C02EDD248C8190E001979C0146
:10427000C29EC001C39E900DD29E900D1124262F88
:10428000332727FD3095820F931F181619060CF05F
:1042900090C08D8190E09C01C29EC001C39E900D94
:1042A000D29E900D11242A2D332727FD3095820FA1
:1042B000931F181619060CF07CC09924442E55241F
:1042C0006DC09C01215030404217530711F460E04B
:1042D0000EC0429EC001439E900D529E900D11242F
:1042E000840F951FED8DFE8DE80FF91F64914C9D95
:1042F000C0014D9D900D5C9D900D1124682C680EA1
:10430000BB24792C780C3FC0E62EFF2460FF19C037
:10431000113039F44B2D4A0DCE01672D0E94B11C8E
:104320002EC02C9DC0012D9D900D3C9D900D112403
:104330004A2D480FCE01662D212F012F0E947B1D93
:104340001EC098A18F8D9817D1F09F8F113039F42E
:104350004B2D4A0DCE01672D0E94B11C0FC02C9D24
:10436000C0012D9D900D3C9D900D11244A2D480FAC
:10437000CE01662D212F012F0E947B1D3F8EF594CB
:10438000E7946E2DB3942B2D332727FD30958D8127
:1043900090E0281739070CF4B7CF9394492D55278F
:1043A00047FD50958C8190E0481759070CF489CF50
:1043B0003F8EDF91CF911F910F91FF90EF90DF9093
:1043C000CF90BF90AF909F908F907F906F905F90B5
:1043D0004F903F9008950F93CF93DF93EC01262FDA
:1043E0006A3049F48D819885899F802D11249A85A2
:1043F000980F9A8726C06D3029F169854A8508850E
:104400000E9413219C816885969F402D11248985E7
:10441000480F49878F818823A9F0552747FD50957C
:10442000699F9001112484E590E0821B930B84170F
:10443000950744F49D81699F902D11248A85890FE9
:104440008A87198681E090E0DF91CF910F910895DE
:104450001F93CF93DF93EC01162FF8948E8560E0C5
:104460000E940C308F8518161CF460E00E940C30FE
:104470001EBD0DB407FEFDCF8EB58F8518161CF43A
:1044800061E00E940C307894DF91CF911F910895E4
:10449000FF920F931F93CF93DF93EC01FF2400E073
:1044A00010E06F2D6064CE010E942822CE0160E8EA
:1044B0000E9428228E8561E00E940C308F8518169C
:1044C0001CF460E00E940C30F801EF57FC4F90E0C4
:1044D00080818EBD0DB407FEFDCF8EB59F5F3196F6
:1044E0009435B1F78F8518161CF461E00E940C30EA
:1044F000F3940C5A1F4F86E0F81699F6CE0160E44B
:104500000E942822DF91CF911F910F91FF90089573
:10451000CF93DF93DC0188EF91E0E1E8F3E0EF0176
:104520009C01199221503040E1F719961C9219977D
:104530001A961C92DF91CF910895EF920F93CF932B
:10454000DF93EC014D876C872E87E88A0F8781E027
:1045500088878F8F18A28F83EBECF1E084918F5FB7
:104560008C83319684918F5F8D833196FE8FED8F92
:104570000E947B1B81E00E945C1B85E00E946A1BFD
:104580008CE00E94651B8D8561E00E94CD2F8C859B
:1045900061E00E94CD2F8E8561E00E94CD2F888939
:1045A00018161CF461E00E94CD2F8F8518161CF49C
:1045B00061E00E94CD2F888918166CF460E00E949B
:1045C0000C306AE070E080E090E00E94B72E8889AD
:1045D00061E00E940C30EC852E2F332727FD3095AB
:1045E000F901E252FB4FE491F0E0EE0FFF1FE653BA
:1045F000FB4F859194919C8B8B8B2E503B4FF901F7
:1046000084918A8FED852E2F332727FD3095F90170
:10461000E252FB4FE491F0E0EE0FFF1FE653FB4F39
:10462000859194919A8B898B2E503B4FF9018491FF
:10463000898FEF852E2F332727FD3095F901E25220
:10464000FB4FE491F0E0EE0FFF1FE653FB4F859127
:1046500094919E8B8D8B2E503B4FF90184918B8FC3
:10466000EE852E2F332727FD3095F901E252FB4FBF
:10467000E491F0E0EE0FFF1FE653FB4F859194911C
:10468000988F8F8B2E503B4FF90184918C8FCE01E8
:1046900061E20E942822CE0164E10E9428228B85DB
:1046A00087FF02C08FE78B876B856068CE010E9411
:1046B0002822CE0160E20E942822CE016CE00E94F6
:1046C0002822CE010E944822DF91CF910F91EF90D6
:1046D0000895CF93DF93DC01E0E8FFE685919491A4
:1046E000ED01CD53DF4FAD0147525F4F8150904CEC
:1046F00009F04EC0E6E9FFE6E491E883E7E9FFE66A
:10470000E4911496EC931497E8E9FFE6E49115968A
:10471000EC931597E9E9FFE68591949117969C93A0
:104720008E931697EBE9FFE68591949119969C93E9
:104730008E931897EDE9FFE6E4919F96EC939F978F
:10474000EEE9FFE6E4919E96EC939E97EFE9FFE693
:10475000E491EA01E883E0EAFFE6859194915D96B1
:104760009C938E935C97E2EAFFE6859194915F9625
:104770009C938E935E97E4EAFFE6859194919196DF
:104780009C938E939097E6EAFFE68591949132C0D0
:104790008CE3888314961C9214972FEF15962C9314
:1047A000159780E293E017969C938E93169784ED6D
:1047B00093E019969C938E93189781E09F968C9323
:1047C0009F979E968C939E97FA0120838CEA9DE09A
:1047D0005D969C938E935C978EED9DE05F969C9387
:1047E0008E935E9784E79EE091969C938E9390972C
:1047F0008CE39FE093969C938E939297DF91CF9159
:104800000895EF92FF920F931F93CF93DF937C0154
:104810008C0108541F4FC8010E948822C80162E71A
:1048200073E00E94EC30C8010E94482283E00E949D
:104830006A1B84E491E0EEEFFFE309958EEB90E0D4
:10484000E80EF91EF7011082C8016DE473E00E94C2
:104850003731C8010E944822E701C45BD040CE0135
:104860000E94811CCE0164E00E94591C882339F407
:1048700062E370E080E090E00E94B72EF0CFDF911D
:10488000CF911F910F91FF90EF9008950F931F9379
:10489000CF93DF93EC018C0108541F4FC80161E0F6
:1048A00040E00E94AD1CFE01EF53FF4FC454DF4FA8
:1048B00085E59881891B808326961882C25CD0404A
:1048C000698D613061F1613028F0888D653008F0C4
:1048D0003FC039C0CE0185960E94C728CE0160E056
:1048E0000E94961BC8010E948822C8016AE973E0F1
:1048F0000E94EC30C8010E94482283B7817F846007
:1049000083BF83B7816083BF83B7816083BF88958E
:1049100083B78E7F83BF83B78E7F83BF1FC0C6528E
:10492000DF4F88819981AA81BB818F709070A070C0
:10493000B0700897A105B10518F4C80167E00CC074
:10494000C80168E709C0882349F06B5FC80104C04B
:10495000882321F0C8016FE20E940F31DF91CF91CF
:104960001F910F910895AF92BF92CF92DF92EF9275
:10497000FF920F931F93CF93DF93EC01C151DF4F51
:104980008881CF5ED040882309F44AC08C3010F073
:1049900010E002C01CE0181BC054DF4F81E0888388
:1049A000C05CD04068EBC62ED12CCC0EDD1EC601FB
:1049B00060E00E94A91C5DEBA52EB12CAC0EBD1EC3
:1049C000F50100814DE2F42E4F2D401B410F0D5F8C
:1049D000C60160E024E533E0E32E0E945D1FC601BE
:1049E00061E00E94A91CF5010081F01AF10E0D5F33
:1049F000C60160E04F2D24E50E94FF1ECF53DF4F1C
:104A000084E08993F5018081181B115D1883AB96B2
:104A100069917991C6010E94EC3088818150888328
:104A2000DF91CF911F910F91FF90EF90DF90CF908A
:104A3000BF90AF9008958F929F92AF92BF92CF9206
:104A4000DF92EF92FF920F931F934C01FC01A28C17
:104A5000B38CCC24DD240E94912E7B018C01F401C7
:104A6000818092800E94912E860E971EE094F09491
:104A700000951095C801B701A60195010E94D03597
:104A8000860E971EC4010E943A321F910F91FF902B
:104A9000EF90DF90CF90BF90AF909F908F90089550
:104AA000AF92BF92CF92DF92EF92FF920F931F933C
:104AB000CF93DF93EC01E9EEAE2EB12CA80EB91E18
:104AC000F501E080F180028113810E94832EE61AB5
:104AD000F70A080B190B78EEC72ED12CCC0EDD1E71
:104AE000F601808190E0A0E0B0E08E159F05A00760
:104AF000B10708F081C08E010C511F4FF801808171
:104B00009181A281B3810097A105B10509F474C018
:104B10000E94832EF6012081620F711D811D911D5F
:104B2000F5016083718382839383FE01E652FF4F18
:104B300080819181A281B3810196A11DB11D8083E5
:104B40009183A283B383F8011082118212821382AF
:104B50000E94912EC052DF4F688379838A839B83A2
:104B6000C05ED040CE010E949B1BCE010A960E94DF
:104B7000811CCE0148960E940D1C8E010B5D1F4FBB
:104B8000C8010E944D29C8010E94252AC8010E941F
:104B9000782B81E026C0CE010E94B324CE010E9472
:104BA00046248E0108541F4FC8010E944822C25457
:104BB000DF4F8881CE5BD040882319F4C8010E9462
:104BC00088220E94912ECC51DF4F688379838A839B
:104BD0009B83249728813981621B730B7A936A9394
:104BE00080E0DF91CF911F910F91FF90EF90DF90C8
:104BF000CF90BF90AF900895CC51DF4F88819981BD
:104C0000AA81BB81C45ED0400097A105B10541F7E0
:104C1000C2CF2F923F924F925F926F927F928F926C
:104C20009F92AF92BF92CF92DF92EF92FF920F933B
:104C30001F93DF93CF93CDB7DEB72B970FB6F894C2
:104C4000DEBF0FBECDBF9B878A877A8369835C8373
:104C50004B838C0107521F4FF8018081882309F490
:104C60001DC18A859B8581549F4FFC011082129241
:104C7000EE5BF040FB87EA87108E98EBE92EF12C73
:104C8000EE0EFF1EC70161E00E94A91C8AE0282EDB
:104C9000312C8A859B85280E391EB5E26B2E712C2E
:104CA000680E791EE981FA81F491FD83A1EC8A2EC8
:104CB000912C880E991EF2ECCF2ED12CC80ED91E45
:104CC000ECEB4E2E512C480E591E83549F4F9F8360
:104CD0008E837AEDA72EB12C8A859B85A80EB91EEE
:104CE000198708878A859B850E9450258823D1F3E0
:104CF0009D81992311F410E003C0EE81FF811081A2
:104D0000C70160E040E026EE33E00E94A5208B81E1
:104D10009C81892B41F0145FC70160E0412F2B81FA
:104D20003C810E94A520F40110828CE0F601808372
:104D3000C70169817A810E94EC30F201208130E064
:104D4000C901880F991F820F931F909581959F4FDE
:104D50008D5AF4018083EE81FF81208130E0C9010A
:104D6000880F991F820F931F909581959F4F835DA8
:104D7000F6018083F501808184FF04C0C70166E6E7
:104D800074E003C0C70162E674E00E943731F201AB
:104D9000208130E0C901880F991F820F931F9095E1
:104DA00081959F4F8D5AF4018083F60180818F5F3A
:104DB0008083EA85FB8586A5882321F0C7016EE5FF
:104DC00074E003C0C7016AE574E00E943731F20164
:104DD000808190E09C01220F331F280F391F3095EE
:104DE00021953F4F2D5AF4012083F60180818F5F7A
:104DF0008083C70166E574E00E943731C10165E038
:104E00000E94591C882351F0EA85FB8566A56F5FD7
:104E1000C3010E94932CC3010E948D2CC10164E048
:104E20000E94591C882399F4E885F9856081262F12
:104E300030E040E050E0F50180819181A281B381B2
:104E400082179307A407B50708F16F3FF9F08A8529
:104E50009B8587529F4F9B878A878FEFEA85FB85CB
:104E60008083E95DF040FB87EA87C30160E00E9430
:104E7000B828C3010E94812C81E0EA85FB85808FE0
:104E80000DC08A859B850E9401242CCFC10166E05C
:104E90000E94591C882309F425CFF3CF2B960FB617
:104EA000F894DEBF0FBECDBFCF91DF911F910F9160
:104EB000FF90EF90DF90CF90BF90AF909F908F903A
:104EC0007F906F905F904F903F902F900895AB012F
:104ED0006BE674E00E9409260895AF92BF92CF92CC
:104EE000DF92EF920F93CF93DF936C0188EE90E007
:104EF000C80ED91E82E3F601808381E090E0A0E035
:104F0000B0E0B293A293929382936F0185EF9FEFEB
:104F1000C80ED91E8FEFF601808387E29FEFC80E7F
:104F2000D91EC6010E946923C6010E94921BC601B8
:104F30006FEF0E94961B4AE0A42EB12CAC0CBD1C56
:104F4000C5010E94491CC5010E94811CC6014896EA
:104F50000E94031CC60188549F4F6DE04BE020E186
:104F60000FE03EE0E32E0E949D22E601A596CE01D1
:104F70000E94A02CC50165E00E94591C882329F0DD
:104F8000CE0160E00E94932C18C0CE016CE674E064
:104F900040E00E94DC28CE016CE674E041E00E9413
:104FA000DC28CE016CE674E042E00E94DC28CE01F1
:104FB0006CE674E043E00E94DC28DF91CF910F9112
:104FC000EF90DF90CF90BF90AF9008950F93CF9365
:104FD000DF93DC01623009F443C0633030F46623B0
:104FE00059F0613009F050C00DC0633009F43EC083
:104FF000643009F049C040C0A00FB11DA95BBF4F8C
:105000004C9342C0602F70E0EB01CC0FDD1FC80F46
:10501000D91F842F90E0880F991F2BA53CA5280F3E
:10502000391FF90185919491C559DF4F9983888380
:10503000FC0145915491042FFD01E60FF71FED5837
:10504000FF4F4083252F3327842F90E028173907FF
:1050500008F4052FA60FB71FA958BF4F0C9314C013
:10506000FC01E00FF11DED5AFF4F0BC0FC01E00FFA
:10507000F11DE55AFF4F05C0FC01E00FF11DED5990
:10508000FF4F408334962083DF91CF910F91089595
:105090000F931F93CF93DF938C01A22FB0E0FC01FD
:1050A000EA0FFB1F67AFED5BFF4F4083E05CFF4FF4
:1050B0001082CD01880F991F080F191F05581F4F27
:1050C000E80119821882F89781E08083A358BA4FCB
:1050D0008C9334961082DF91CF911F910F91089598
:1050E000CF93DF93EC01643008F03FC0A62FB0E00F
:1050F000FC01EA0FFB1FE55BFF4F1082389710821F
:10510000CD01880F991FC80FD91FC558DF4F1982CD
:1051100018823C961082FD01E757FA4F1082FD017C
:10512000EB57FA4F1082A358BA4F1C9280917D051D
:10513000882311F490E002C09091890580917E054A
:10514000882319F080918A05980F80917F05882324
:1051500019F080918B05980F80918005882319F0B4
:1051600080918C05980F9093B400DF91CF910895B2
:10517000FF920F931F938C01F62E0E9470280F0D43
:10518000111DF80114821F910F91FF9008950F9344
:105190001F938C0160E00E94B828C80161E00E9462
:1051A000B828C80162E00E94B828C80163E00E94E4
:1051B000B8281F910F910895CF92DF92EF92FF923E
:1051C0000F931F938C016B01E42E642F0E94B8286B
:1051D000FF24F701EE0FFF1FE00FF11FD4A2C3A2BF
:1051E00010AE17AA0E0D1F1D81E0F8018483095B24
:1051F0001F4F89E0F8018083045F1F4FF801108280
:10520000085F1F4FF8011082085F1F4FF8011082DE
:105210001F910F91FF90EF90DF90CF9008951F9313
:10522000CF93DF93AC01162F262F30E0EC01C20F95
:10523000D31F8881882369F18C81882351F5D90196
:10524000AA0FBB1FA40FB51F8B8990E0880F991F71
:105250001B96ED91FC911C97E80FF91F8591949195
:105260002FEF8F3F920711F4188213C09F8F90E0A9
:10527000880F991F5796ED91FC915897E80FF91FE9
:1052800065917491CA01412F0E94DC288B898F5F40
:105290008B8BDF91CF911F9108950F931F938C01FA
:1052A00060E00E940F29C80161E00E940F29C80137
:1052B00062E00E940F29C80163E00E940F291F913C
:1052C0000F9108958F929F92AF92BF92CF92DF92EB
:1052D000EF92FF920F931F93CF93DF937C01162FD2
:1052E000C62EDD24DC01AC0DBD1D14968C911497E7
:1052F000882309F49DC0AD5BBF4F8C91A354B0408F
:10530000882309F095C0E601CC0FDD1FCE0DDF1D0F
:10531000EFA9F8ADEE0FFF1F4BA15CA1E40FF51F45
:10532000259134912115310509F044C0D3968C9113
:10533000D397813031F418AE1FAAFA012591349128
:1053400039C014961C9214978C91882371F0C70170
:105350000E940F298FA998AD880F991FEBA1FCA17E
:10536000E80FF91F2591349125C0C7010E947028CC
:105370005FC096E0369527959A95E1F76F70422FBA
:105380004F7185E0369527958A95E1F72051C70141
:10539000012F0E94E627888199810196998388834D
:1053A000880F991FD501ED91FC91E80FF91F259108
:1053B00034910DC04601880C991CC701880D991DB8
:1053C000EC01E796A3E2AA2EB12CA80EB91EB901F2
:1053D000769567957695679520FDCBCFF701EC0D17
:1053E000FD1D862F8F7387AFED5BFF4F3083E05C31
:1053F000FF4F1082D701A80DB91DA558BF4F1196B8
:105400001C921E92AB57B040F89781E08083CDE7A5
:10541000D5E0CC0EDD1EE601888334961082D79647
:105420008D919C91D8970196D8969C938E93D797FF
:10543000DF91CF911F910F91FF90EF90DF90CF9070
:10544000BF90AF909F908F9008950F931F938C0102
:1054500060E00E946229C80161E00E946229C801DF
:1054600062E00E946229C80163E00E9462291F91E4
:105470000F910895DF92EF92FF920F931F93CF93B6
:10548000DF937C01D62E062F10E0DC01A00FB11FA8
:10549000A55BBF4F8C91AB54B040882309F420C169
:1054A000FD01ED5BFF4F8081882321F4C7010E943D
:1054B000702816C181508083BD016D577F4FFB015D
:1054C0008081882309F052C0F801EE0FFF1FEE0D16
:1054D000FF1DEF01C558DF4F888199810196880F24
:1054E000991FE559FF4F0190F081E02DE80FF91F5A
:1054F00025913491A957BF4F822F87708C93A901B2
:10550000F3E056954795FA95E1F7CA019695879588
:105510001496232F3327269526952C938F73F70106
:105520002085829F802D1124FB018083F801E357A1
:10553000FA4F4170408388819981019699838883CD
:1055400058972C91A357B04030E08217930770F022
:10555000A958BF4F8C91882329F0281B3109398322
:10556000288304C0C7016D2D0E947028E701C00F79
:10557000D11FFE01ED57FF4F808181508083FE01D6
:10558000E15BFF4F30813F5F30834FADC557DF4F49
:105590002881CB58D040240F8F8D280FC55ADF4F5C
:1055A0006881CB55D040662311F4E22F0EC0832FC3
:1055B000992787FD909570E00E940336C15ADF4F0E
:1055C0008881869FE02D1124E20FE701C00FD11FD3
:1055D000C95BDF4F28812C966881C355D040662374
:1055E00081F0772767FD7095832F992787FD909528
:1055F0000E940336C95ADF4F8881869F802D11246F
:10560000280FE701C00FD11FCD59DF4F6881C35666
:10561000D040662399F0832F992787FD909570E0FD
:105620000E940336CB0162E070E00E940336C95944
:10563000DF4F9881899F802D1124280F4F3331F03F
:10564000822F2A300CF089E0482F87FD40E0F89443
:105650008E2F992787FD9095849664E270E00E94D2
:105660000336E82FFF27E7FDF095E057FB4FE49165
:10567000D801AF57BA4FEC93F701E00FF11FE15794
:10568000FF4F208130E038978081992787FD9095E2
:10569000B901689F9001699F300D789F300D1124EA
:1056A000F701818590E0B901689F9001699F300DF5
:1056B000789F300D1124842F992787FD9095FC0148
:1056C0002E9FC0012F9F900D3E9F900D1124F80139
:1056D000EB57FA4F808307571A4FF801808378946D
:1056E000DF91CF911F910F91FF90EF90DF90089580
:1056F0000F931F938C0160E00E943A2AC80161E079
:105700000E943A2AC80162E00E943A2AC80163E076
:105710000E943A2A1F910F91089560918505662392
:1057200041F1809179058F5F809379059091810592
:105730008917F8F090E080917D05882309F491E0C5
:1057400090937D051092790580918D05882379F0DD
:1057500080916A0123E4829FC0011124895B8093B8
:105760006A0190E070E00E94EF358093890521E0A6
:1057700001C020E060918605662339F180917A05A9
:105780008F5F80937A05909182058917F0F090E001
:1057900080917E05882309F491E090937E05109214
:1057A0007A0580918E05882379F080916A0123E43F
:1057B000829FC0011124895B80936A0190E070E0B0
:1057C0000E94EF3580938A0521E06091870566236A
:1057D00039F180917B058F5F80937B0590918305E4
:1057E0008917F0F090E080917F05882309F491E01B
:1057F00090937F0510927B0580918F05882379F027
:1058000080916A0123E4829FC0011124895B809307
:105810006A0190E070E00E94EF3580938B0521E0F3
:1058200060918805662339F180917C058F5F8093B4
:105830007C05909184058917F0F090E080918005B7
:10584000882309F491E09093800510927C05809163
:105850009005882391F080916A0123E4829FC00122
:105860001124895B80936A0190E070E00E94EF351B
:1058700080938C0502C02223F9F080917D05882356
:1058800011F490E002C09091890580917E058823F3
:1058900019F080918A05980F80917F05882319F06F
:1058A00080918B05980F80918005882319F0809155
:1058B0008C05980F9093B40008951F920F920FB625
:1058C0000F9211242F933F934F935F936F937F9386
:1058D0008F939F93AF93BF93EF93FF930E948D2B72
:1058E000FF91EF91BF91AF919F918F917F916F91B8
:1058F0005F914F913F912F910F900FBE0F901F908E
:10590000189568E874E040E00E94DC28089560E89B
:1059100074E040E00E94DC2808956AE774E040E00B
:105920000E94DC280895FC01862F628570E06F5F7D
:105930007F4F992787FD90950E94033681870895B0
:105940009F92AF92BF92CF92DF92EF92FF920F930E
:105950001F93CF93DF93EC0181E088876FE8C62E19
:10596000D12CCC0EDD1E5BE2E52EF12CEC0EFD1EE3
:1059700010E09924939444EBA42E44E0B42EF60155
:1059800091926F01F701A192B1927F01CE0161E086
:1059900040E020E0012F0E94E6271F5F143079F7D6
:1059A00083E061E070E00E946D2F8091B100887FFC
:1059B00081608093B100F894109280001092810071
:1059C000109285001092840088E191E09093890004
:1059D000809388008091810088608093810080910D
:1059E000810081608093810080916F00826080934C
:1059F0006F007894DF91CF911F910F91FF90EF90FE
:105A0000DF90CF90BF90AF909F9008950F931F931A
:105A1000CF93DF93BC018230910510F462E070E017
:105A2000E0919C05F0919D0540E050E0A0E0B0E0E1
:105A300024C08081918186179707D0F08617970739
:105A400071F482819381109729F013969C938E9321
:105A500012972CC090939D0580939C0527C04115FB
:105A6000510519F08417950718F48D01AC01EF0169
:105A7000DF01828193819C01F9013097D1F64115B4
:105A80005105F9F0CA01861B970B8430910580F40B
:105A90008A819B810115110521F0F801938382838E
:105AA00004C090939D0580939C05FE01329645C0ED
:105AB000FE01E80FF91F6193719302979983888320
:105AC0003CC080919A0590919B05892B41F480916F
:105AD0006D0190916E0190939B0580939A05409182
